:100000000C946E000C9480000C9480000C94800082
:100010000C9480000C9480000C9480000C94800060
:100020000C9480000C9480000C9480000C94800050
:100030000C9480000C9480000C9480000C94800040
:100040000C9480000C9480000C94BF020C948000EF
:100050000C9480000C9480000C9480000C94800020
:100060000C9480000C9480000C9480000C94800010
:100070000C9480000C9480000C9480000C94800000
:100080000C9480000C9480000C9480000C948000F0
:100090000C9480000C9480000C9480000C948000E0
:1000A0000C9480000C9480000C9480000C948000D0
:1000B0000C948000AB026A025C02BE02BE02AB027C
:1000C0001E0234025402BE02AB0208021502A6024E
:1000D0001E0234025402BE02AB02980211241FBE5B
:1000E000CFEFD8E0DEBFCDBF21E0A0E0B1E001C09E
:1000F0001D92AB37B207E1F70E9460010C94110327
:100100000C940000809154018A3020F4805D80932B
:1001100054010895895C80935401089580910401ED
:10012000817080935401811150C0809164018111CC
:100130004CC080917701811148C080917501823057
:10014000F1F028F4882341F0813089F0089583305C
:1001500009F1843079F108950E94E60080917501DB
:100160008F5F809375018AE08093770108950E94E4
:10017000EF00809175018F5F8093750108950E9453
:10018000F800809175018F5F8093750185E0809301
:100190007701089588E491E0909301018093000134
:1001A0008DE08093640184E08093750188E78093FB
:1001B0007701089588E791E0909301018093000111
:1001C00082E0809364011092750108958EE480931B
:1001D0007A010E94D50183E18093030108958FE4A1
:1001E00080937A0184E0809302010E94E1010895E6
:1001F0000F931F93CF93DF9306E011E0F801808106
:1002000082958F70809354010E948200C7E5D1E0EF
:10021000809154018A83F80180818F70809354010A
:100220000E948200809154018B83F8018181829524
:100230008F70809354010E948200809154018C83BE
:10024000F80181818F70809354010E948200809117
:1002500054018D83F801828182958F7080935401BF
:100260000E948200809154018E83F80182818F70F8
:10027000809354010E948200809154018F83F80181
:10028000838182958F70809354010E9482008091B7
:1002900054018887F80183818F70809354010E94F4
:1002A0008200809154018987D0930101C09300019D
:1002B0008BE080936401DF91CF911F910F9108959E
:1002C000E1E6F0E080E8808310820E94AB010E94AA
:1002D000E1020E94D101A8E7B1E088E58C938DE0AE
:1002E00011968C931197E8E4F1E091E490839CE2FD
:1002F000918320E3228331E3338336E4348334E390
:1003000035839683278337E3308734E43187228728
:100310008387E7E5F1E02EE42083918382871092C2
:100320007501B0930101A093000182E08093640104
:10033000789482E3809377010E94B20180917701E3
:100340008111FACF0E94B2010E94EA020E94ED01DF
:100350000E948E00F7CF82E084BD85E085BD87E2F4
:1003600087BD089585B38270809354018823C1F0BE
:10037000A99A80915601882361F0809176018F5F60
:10038000843119F08093760104C0109276011092A6
:10039000560180917701882319F08150809377016D
:1003A000089580E28093B800089581E0809303016E
:1003B0008091040181608093040184EA8093BC00F1
:1003C000089586E080930301809104018160809309
:1003D000040184EA8093BC0008958091BC00807879
:1003E00080935401882309F4C9C02091B900287F63
:1003F00020935401E09103018E2F90E0FC0131978E
:10040000E431F10508F0BAC0E65AFF4F0C940B0333
:10041000809155018093BB0084E88093BC0080915B
:1004200003018F5F80930301089584EA8093BC00E9
:10043000809103018F5F809303010895283459F45C
:1004400084E98093BC00809104018E7F8093040135
:1004500010920301089584EC8093BC008091030105
:100460008F5F809303010895809126019091BB00D6
:10047000E82FF0E0EA5FFE4F90838F5F80932601C4
:1004800080910201815080930201813049F484E817
:100490008093BC00809103018F5F809303010895D6
:1004A00084EC8093BC0008958091BB00E09126010C
:1004B000F0E0EA5FFE4F808384E98093BC00809186
:1004C00004018E7F80930401809103018F5F8093EC
:1004D00003010895283111F02832E9F4E091260152
:1004E000F0E0EA5FFE4F80818093BB0084E8809358
:1004F000BC008091020181508093020190912601FD
:100500009F5F90932601811139C0809103018F5F15
:10051000809303010895203241F484E98093BC0064
:10052000809104018E7F809304011092030108954D
:1005300084E98093BC00809104018E7F8093040144
:10054000809103018F5F80930301089580917A0168
:10055000816080937A01283019F010920301089588
:1005600080917A018093BB0084E88093BC00109254
:100570002601809103018F5F8093030108951F92EC
:100580000F920FB60F9211248F939F93EF93FF93C7
:1005900010927601809156019091C600E82FF0E00C
:1005A000E95DFE4F9083803218F48F5F809356018F
:1005B000FF91EF919F918F910F900FBE0F901F9021
:1005C00018951092C50083E38093C40088E9809356
:1005D000C1000895809164018823E1F08091C000FA
:1005E0008072809354018823A9F0E0910001F0917A
:1005F000010180818093C6008091000190910101EA
:1006000001969093010180930001809164018150D3
:10061000809364010895EE0FFF1F0590F491E02D83
:060620000994F894FFCFDD
:00000001FF
